:03000000020A44AD
:0C0A4400787FE4F6D8FD7581220209538A
:0F0A350068696D616E7368752047757074610034
:090A5000D2B5D2B4C2B5C2B42281
:090A5900C2B5D2B4D2B5C2B42278
:090A6200C2B5D2B4C2B4D2B5226F
:090A6B00D2B5D2B4C2B4D2B52256
:1009FF00E4FBFAEF3392B5D2B4C2B4EF25E0FF0BAC
:0D0A0F00BB00010AEB64084A70E9020A62AC
:1009B500E4FFFEEEFDC3940874809480501BD2B40E
:1009C500A2B5E4334207C3ED9407748094805004C4
:0909D500EF25E0FFC2B40E80DA48
:0109DE0022F6
:100A1C00AE05AD07120A507FA01209FFAF051209EF
:090A2C00FFAF061209FF020A598E
:0209DF00AE0761
:1009E100120A507FA01209FFAF061209FF120A5026
:0E09F1007FA11209FF1209B5120A6B020A5902
:100985008B1A8A1B891CAC07AF1DEF3395E04F60AE
:100995001CAF04AB1A051CE51CAA1B7002051B1431
:1009A500F91208F6FD120A1C151D0C80DB020A5906
:100921008F1E8B1F8A208921AF22EF3395E04F6004
:1009310020AF1E1209DFAB1FAA20A921EF12090F58
:1009410074012521F521E43520F5201522051E80AD
:02095100D722AB
:10095300E4F508F509780A7C00FD7BFF7A0A79350E
:10096300FE7F0F1208D07B007A00790A751D0DE413
:10097300FF1209857F051209DFAD07E4FF120A1C88
:0209830080FEF4
:10080000E709F608DFFA8046E709F208DFFA803EDA
:1008100088828C83E709F0A3DFFA8032E309F608C7
:10082000DFFA8078E309F208DFFA807088828C832F
:10083000E309F0A3DFFA806489828A83E0A3F608E3
:10084000DFFA805889828A83E0A3F208DFFA804CBD
:1008500080D280FA80C680D4806980F28033801094
:1008600080A680EA809A80A880DA80E280CA8033FD
:1008700089828A83ECFAE493A3C8C582C8CCC58375
:10088000CCF0A3C8C582C8CCC583CCDFE9DEE78045
:100890000D89828A83E493A3F608DFF9ECFAA9F0C4
:1008A000EDFB2289828A83ECFAE0A3C8C582C8CC1A
:1008B000C583CCF0A3C8C582C8CCC583CCDFEADE33
:1008C000E880DB89828A83E493A3F208DFF980CC95
:1008D00088F0EF60010E4E60C388F0ED2402B4048E
:1008E0000050B9F582EB2402B4040050AF23234535
:0608F00082239008507302
:1008F600BB010689828A83E0225002E722BBFE0200
:09090600E32289828A83E4932232
:10090F00BB010689828A83F0225002F722BBFE01C7
:02091F00F322C1
:00000001FF
